{
  "transactions": [
    {
      "hash": "0x7d2d6c208b3f5eec37e0ab3e8a36e04dc8e8b576815ccbd2bee3425196cf45ae",
      "transactionType": "CREATE",
      "contractName": "Counter",
      "contractAddress": "0x906cf41ba7ce2ab9e1592bc8c7ff1a384300b9e0",
      "function": null,
      "arguments": [
        "0xDDcFEcF17586D08A5740B7D91735fcCE3dfe3eeD"
      ],
      "transaction": {
        "from": "0xf6045421d463adb80823e38273f0e0c45887dafb",
        "gas": "0x9183f",
        "value": "0x0",
        "input": "0x60c060405234801561001057600080fd5b506040516107f93803806107f983398101604081905261002f91610048565b336080526001600160a01b031660a05260008055610078565b60006020828403121561005a57600080fd5b81516001600160a01b038116811461007157600080fd5b9392505050565b60805160a0516107476100b26000396000818161017301526103e8015260008181610121015281816101da015261051b01526107476000f3fe608060405234801561001057600080fd5b50600436106100885760003560e01c80638381f58a1161005b5780638381f58a146101055780638da5cb5b1461011c578063bc2c0c5e1461015b578063d5438eae1461016e57600080fd5b80631b2022e61461008d5780632a936702146100ba57806334f971ed146100cf57806356d5d475146100f2575b600080fd5b6100a061009b3660046105e3565b610195565b60405163ffffffff90911681526020015b60405180910390f35b6100cd6100c8366004610615565b6101cf565b005b6100e26100dd366004610615565b610372565b60405190151581526020016100b1565b6100cd610100366004610637565b6103dd565b61010e60005481565b6040519081526020016100b1565b6101437f000000000000000000000000000000000000000000000000000000000000000081565b6040516001600160a01b0390911681526020016100b1565b6100cd610169366004610615565b610510565b6101437f000000000000000000000000000000000000000000000000000000000000000081565b600181815481106101a557600080fd5b9060005260206000209060089182820401919006600402915054906101000a900463ffffffff1681565b336001600160a01b037f000000000000000000000000000000000000000000000000000000000000000016146102485760405162461bcd60e51b815260206004820152601960248201527821b7bab73a32b91d1039b2b73232b9103737ba1037bbb732b960391b60448201526064015b60405180910390fd5b60005b60015481101561036e578163ffffffff166001828154811061026f5761026f6106be565b6000918252602090912060088204015460079091166004026101000a900463ffffffff160361036657600180546102a79082906106d4565b815481106102b7576102b76106be565b90600052602060002090600891828204019190066004029054906101000a900463ffffffff16600182815481106102f0576102f06106be565b90600052602060002090600891828204019190066004026101000a81548163ffffffff021916908363ffffffff1602179055506001805480610334576103346106fb565b600082815260209020600860001990920191820401805463ffffffff600460078516026101000a021916905590555050565b60010161024b565b5050565b6000805b6001548110156103d4578263ffffffff166001828154811061039a5761039a6106be565b6000918252602090912060088204015460079091166004026101000a900463ffffffff16036103cc5750600192915050565b600101610376565b50600092915050565b336001600160a01b037f000000000000000000000000000000000000000000000000000000000000000016146104555760405162461bcd60e51b815260206004820152601b60248201527f436f756e7465723a2073656e646572206e6f74206d61696c626f780000000000604482015260640161023f565b61045e84610372565b6104aa5760405162461bcd60e51b815260206004820152601d60248201527f496e636f7272656374206f726967696e20636861696e20646f6d61696e000000604482015260640161023f565b60006104b8828401846105e3565b6000546040805163ffffffff891681526020810192909252810182905290915084907f12220e743c32f62de0612f1a96ec96aee982b40b47c65f867017f5347983dc739060600160405180910390a260005550505050565b336001600160a01b037f000000000000000000000000000000000000000000000000000000000000000016146105845760405162461bcd60e51b815260206004820152601960248201527821b7bab73a32b91d1039b2b73232b9103737ba1037bbb732b960391b604482015260640161023f565b6001805480820182556000919091527fb10e2d527612073b26eecdfd717e6a320cf44b4afac2b0732d9fcbe2b7fa0cf66008820401805460079092166004026101000a63ffffffff818102199093169390921691909102919091179055565b6000602082840312156105f557600080fd5b5035919050565b803563ffffffff8116811461061057600080fd5b919050565b60006020828403121561062757600080fd5b610630826105fc565b9392505050565b6000806000806060858703121561064d57600080fd5b610656856105fc565b935060208501359250604085013567ffffffffffffffff8082111561067a57600080fd5b818701915087601f83011261068e57600080fd5b81358181111561069d57600080fd5b8860208285010111156106af57600080fd5b95989497505060200194505050565b634e487b7160e01b600052603260045260246000fd5b818103818111156106f557634e487b7160e01b600052601160045260246000fd5b92915050565b634e487b7160e01b600052603160045260246000fdfea26469706673582212201491cb68f31095bae19d5bd6e17b47630670bc1e69151fa33b337db7f7d39c3064736f6c63430008180033000000000000000000000000ddcfecf17586d08a5740b7d91735fcce3dfe3eed",
        "nonce": "0x3b",
        "chainId": "0x7f7"
      },
      "additionalContracts": [],
      "isFixedGasLimit": false
    },
    {
      "hash": "0x9b71423fbc03d1ac302c7a2884473a104f53ef7bc0935a4fbd5cc4f3400947ff",
      "transactionType": "CALL",
      "contractName": "Counter",
      "contractAddress": "0x906cf41ba7ce2ab9e1592bc8c7ff1a384300b9e0",
      "function": "addAllowedOriginDomain(uint32)",
      "arguments": [
        "44787"
      ],
      "transaction": {
        "from": "0xf6045421d463adb80823e38273f0e0c45887dafb",
        "to": "0x906cf41ba7ce2ab9e1592bc8c7ff1a384300b9e0",
        "gas": "0x163cb",
        "value": "0x0",
        "input": "0xbc2c0c5e000000000000000000000000000000000000000000000000000000000000aef3",
        "nonce": "0x3c",
        "chainId": "0x7f7"
      },
      "additionalContracts": [],
      "isFixedGasLimit": false
    },
    {
      "hash": "0xdd4f63d0a626a6e1715a993054172a71e01049f816452f879cf64d3c6f8efaf0",
      "transactionType": "CALL",
      "contractName": "Counter",
      "contractAddress": "0x906cf41ba7ce2ab9e1592bc8c7ff1a384300b9e0",
      "function": "addAllowedOriginDomain(uint32)",
      "arguments": [
        "11155111"
      ],
      "transaction": {
        "from": "0xf6045421d463adb80823e38273f0e0c45887dafb",
        "to": "0x906cf41ba7ce2ab9e1592bc8c7ff1a384300b9e0",
        "gas": "0xab99",
        "value": "0x0",
        "input": "0xbc2c0c5e0000000000000000000000000000000000000000000000000000000000aa36a7",
        "nonce": "0x3d",
        "chainId": "0x7f7"
      },
      "additionalContracts": [],
      "isFixedGasLimit": false
    }
  ],
  "receipts": [
    {
      "status": "0x1",
      "cumulativeGasUsed": "0x6ff78",
      "logs": [],
      "logsBloom": "0x00000000000000000000000000000000000000000000000000000000000000000000000000000000000000000000000000000000000000000000000000000000000000000000000000000000000000000000000000000000000000000000000000000000000000000000000000000000000000000000000000000000000000000000000000000000000000000000000000000000000000000000000000000000000000000000000000000000000000000000000000000000000000000000000000000000000000000000000000000000000000000000000000000000000000000000000000000000000000000000000000000000000000000000000000000000",
      "type": "0x2",
      "transactionHash": "0x7d2d6c208b3f5eec37e0ab3e8a36e04dc8e8b576815ccbd2bee3425196cf45ae",
      "transactionIndex": "0x1",
      "blockHash": "0xe855855964186068cb99e0fbdb5518055a1e002ff5e16f882684022ce17940c0",
      "blockNumber": "0x15dbc1",
      "gasUsed": "0x6ff78",
      "effectiveGasPrice": "0x9502f9000",
      "from": "0xf6045421d463adb80823e38273f0e0c45887dafb",
      "to": null,
      "contractAddress": "0x906cf41ba7ce2ab9e1592bc8c7ff1a384300b9e0",
      "gasUsedForL1": "0x0",
      "l1BlockNumber": "0x6b5ac9"
    },
    {
      "status": "0x1",
      "cumulativeGasUsed": "0x10197",
      "logs": [],
      "logsBloom": "0x00000000000000000000000000000000000000000000000000000000000000000000000000000000000000000000000000000000000000000000000000000000000000000000000000000000000000000000000000000000000000000000000000000000000000000000000000000000000000000000000000000000000000000000000000000000000000000000000000000000000000000000000000000000000000000000000000000000000000000000000000000000000000000000000000000000000000000000000000000000000000000000000000000000000000000000000000000000000000000000000000000000000000000000000000000000",
      "type": "0x2",
      "transactionHash": "0x9b71423fbc03d1ac302c7a2884473a104f53ef7bc0935a4fbd5cc4f3400947ff",
      "transactionIndex": "0x1",
      "blockHash": "0x8df06623cb6b01a10bf8ec7063f66ca40dea308bdc4d90ed733cb6e77af470d1",
      "blockNumber": "0x15dbc2",
      "gasUsed": "0x10197",
      "effectiveGasPrice": "0x9502f9000",
      "from": "0xf6045421d463adb80823e38273f0e0c45887dafb",
      "to": "0x906cf41ba7ce2ab9e1592bc8c7ff1a384300b9e0",
      "contractAddress": null,
      "gasUsedForL1": "0x0",
      "l1BlockNumber": "0x6b5ac9"
    },
    {
      "status": "0x1",
      "cumulativeGasUsed": "0x7c3d",
      "logs": [],
      "logsBloom": "0x00000000000000000000000000000000000000000000000000000000000000000000000000000000000000000000000000000000000000000000000000000000000000000000000000000000000000000000000000000000000000000000000000000000000000000000000000000000000000000000000000000000000000000000000000000000000000000000000000000000000000000000000000000000000000000000000000000000000000000000000000000000000000000000000000000000000000000000000000000000000000000000000000000000000000000000000000000000000000000000000000000000000000000000000000000000",
      "type": "0x2",
      "transactionHash": "0xdd4f63d0a626a6e1715a993054172a71e01049f816452f879cf64d3c6f8efaf0",
      "transactionIndex": "0x1",
      "blockHash": "0xfc9e76be0656cede268c64ffb0593722363081557e23deb0e50ae056ef11d180",
      "blockNumber": "0x15dbc3",
      "gasUsed": "0x7c3d",
      "effectiveGasPrice": "0x9502f9000",
      "from": "0xf6045421d463adb80823e38273f0e0c45887dafb",
      "to": "0x906cf41ba7ce2ab9e1592bc8c7ff1a384300b9e0",
      "contractAddress": null,
      "gasUsedForL1": "0x0",
      "l1BlockNumber": "0x6b5ac9"
    }
  ],
  "libraries": [],
  "pending": [],
  "returns": {},
  "timestamp": 1731057814,
  "chain": 2039,
  "commit": "e594193"
}